{
  "_format": "hh-sol-artifact-1",
  "contractName": "HedgeManager",
  "sourceName": "contracts/HedgeManager.sol",
  "abi": [
    {
      "inputs": [
        {
          "internalType": "address",
          "name": "_usdcAddress",
          "type": "address"
        },
        {
          "internalType": "address",
          "name": "_copcAddress",
          "type": "address"
        }
      ],
      "stateMutability": "nonpayable",
      "type": "constructor"
    },
    {
      "anonymous": false,
      "inputs": [
        {
          "indexed": true,
          "internalType": "address",
          "name": "previousOwner",
          "type": "address"
        },
        {
          "indexed": true,
          "internalType": "address",
          "name": "newOwner",
          "type": "address"
        }
      ],
      "name": "OwnershipTransferred",
      "type": "event"
    },
    {
      "inputs": [
        {
          "internalType": "uint256",
          "name": "_amount",
          "type": "uint256"
        }
      ],
      "name": "addCopcLiquidity",
      "outputs": [],
      "stateMutability": "nonpayable",
      "type": "function"
    },
    {
      "inputs": [
        {
          "internalType": "uint256",
          "name": "_hedgeId",
          "type": "uint256"
        }
      ],
      "name": "closeHedge",
      "outputs": [],
      "stateMutability": "nonpayable",
      "type": "function"
    },
    {
      "inputs": [
        {
          "internalType": "enum HedgeManager.ConversionDirection",
          "name": "_direction",
          "type": "uint8"
        },
        {
          "internalType": "uint256",
          "name": "_duration",
          "type": "uint256"
        },
        {
          "internalType": "uint256",
          "name": "_amount",
          "type": "uint256"
        }
      ],
      "name": "createHedge",
      "outputs": [
        {
          "internalType": "uint256",
          "name": "",
          "type": "uint256"
        }
      ],
      "stateMutability": "nonpayable",
      "type": "function"
    },
    {
      "inputs": [
        {
          "internalType": "uint256",
          "name": "_amount",
          "type": "uint256"
        },
        {
          "internalType": "enum HedgeManager.ConversionDirection",
          "name": "_direction",
          "type": "uint8"
        }
      ],
      "name": "getAmountForCurrentExchangeRate",
      "outputs": [
        {
          "internalType": "uint256",
          "name": "",
          "type": "uint256"
        }
      ],
      "stateMutability": "view",
      "type": "function"
    },
    {
      "inputs": [
        {
          "internalType": "uint256",
          "name": "_amount",
          "type": "uint256"
        },
        {
          "internalType": "enum HedgeManager.ConversionDirection",
          "name": "_direction",
          "type": "uint8"
        },
        {
          "internalType": "uint256",
          "name": "_rate",
          "type": "uint256"
        }
      ],
      "name": "getAmountForExchangeRate",
      "outputs": [
        {
          "internalType": "uint256",
          "name": "",
          "type": "uint256"
        }
      ],
      "stateMutability": "view",
      "type": "function"
    },
    {
      "inputs": [
        {
          "internalType": "uint256",
          "name": "_amount",
          "type": "uint256"
        }
      ],
      "name": "getCollateralRequirement",
      "outputs": [
        {
          "internalType": "uint256",
          "name": "",
          "type": "uint256"
        }
      ],
      "stateMutability": "view",
      "type": "function"
    },
    {
      "inputs": [],
      "name": "getCopcAddress",
      "outputs": [
        {
          "internalType": "address",
          "name": "",
          "type": "address"
        }
      ],
      "stateMutability": "view",
      "type": "function"
    },
    {
      "inputs": [
        {
          "internalType": "address",
          "name": "_lp",
          "type": "address"
        }
      ],
      "name": "getCopcLiquidityBalance",
      "outputs": [
        {
          "internalType": "uint256",
          "name": "",
          "type": "uint256"
        }
      ],
      "stateMutability": "view",
      "type": "function"
    },
    {
      "inputs": [],
      "name": "getExchangeRate",
      "outputs": [
        {
          "internalType": "uint256",
          "name": "",
          "type": "uint256"
        }
      ],
      "stateMutability": "view",
      "type": "function"
    },
    {
      "inputs": [
        {
          "internalType": "uint256",
          "name": "_amount",
          "type": "uint256"
        }
      ],
      "name": "getFee",
      "outputs": [
        {
          "internalType": "uint256",
          "name": "",
          "type": "uint256"
        }
      ],
      "stateMutability": "view",
      "type": "function"
    },
    {
      "inputs": [
        {
          "internalType": "uint256",
          "name": "_hedgeId",
          "type": "uint256"
        }
      ],
      "name": "getHedge",
      "outputs": [
        {
          "components": [
            {
              "internalType": "enum HedgeManager.ConversionDirection",
              "name": "direction",
              "type": "uint8"
            },
            {
              "internalType": "uint256",
              "name": "id",
              "type": "uint256"
            },
            {
              "internalType": "address",
              "name": "owner",
              "type": "address"
            },
            {
              "internalType": "uint256",
              "name": "amount",
              "type": "uint256"
            },
            {
              "internalType": "uint256",
              "name": "collateral",
              "type": "uint256"
            },
            {
              "internalType": "uint256",
              "name": "fee",
              "type": "uint256"
            },
            {
              "internalType": "uint256",
              "name": "startDate",
              "type": "uint256"
            },
            {
              "internalType": "uint256",
              "name": "duration",
              "type": "uint256"
            },
            {
              "internalType": "uint256",
              "name": "lockedInRate",
              "type": "uint256"
            },
            {
              "internalType": "bool",
              "name": "closed",
              "type": "bool"
            },
            {
              "internalType": "bool",
              "name": "liquidated",
              "type": "bool"
            },
            {
              "internalType": "uint256",
              "name": "closeDate",
              "type": "uint256"
            }
          ],
          "internalType": "struct HedgeManager.Hedge",
          "name": "",
          "type": "tuple"
        }
      ],
      "stateMutability": "view",
      "type": "function"
    },
    {
      "inputs": [
        {
          "internalType": "uint256",
          "name": "_hedgeId",
          "type": "uint256"
        }
      ],
      "name": "getHedgeExpiration",
      "outputs": [
        {
          "internalType": "uint256",
          "name": "",
          "type": "uint256"
        }
      ],
      "stateMutability": "view",
      "type": "function"
    },
    {
      "inputs": [
        {
          "internalType": "address",
          "name": "_owner",
          "type": "address"
        }
      ],
      "name": "getHedges",
      "outputs": [
        {
          "internalType": "uint256[]",
          "name": "",
          "type": "uint256[]"
        }
      ],
      "stateMutability": "view",
      "type": "function"
    },
    {
      "inputs": [
        {
          "internalType": "uint256",
          "name": "_hedgeId",
          "type": "uint256"
        }
      ],
      "name": "liquidateHedge",
      "outputs": [
        {
          "internalType": "bool",
          "name": "",
          "type": "bool"
        }
      ],
      "stateMutability": "nonpayable",
      "type": "function"
    },
    {
      "inputs": [],
      "name": "owner",
      "outputs": [
        {
          "internalType": "address",
          "name": "",
          "type": "address"
        }
      ],
      "stateMutability": "view",
      "type": "function"
    },
    {
      "inputs": [],
      "name": "renounceOwnership",
      "outputs": [],
      "stateMutability": "nonpayable",
      "type": "function"
    },
    {
      "inputs": [
        {
          "internalType": "uint256",
          "name": "rate",
          "type": "uint256"
        }
      ],
      "name": "setExchangeRate",
      "outputs": [],
      "stateMutability": "nonpayable",
      "type": "function"
    },
    {
      "inputs": [
        {
          "internalType": "address",
          "name": "newOwner",
          "type": "address"
        }
      ],
      "name": "transferOwnership",
      "outputs": [],
      "stateMutability": "nonpayable",
      "type": "function"
    }
  ],
  "bytecode": "0x6080604052621fa4006006556276a7006007553480156200001f57600080fd5b50604051620028e1380380620028e183398181016040528101906200004591906200022d565b6200006562000059620000f760201b60201c565b620000ff60201b60201c565b81600260006101000a81548173ffffffffffffffffffffffffffffffffffffffff021916908373ffffffffffffffffffffffffffffffffffffffff16021790555080600360006101000a81548173ffffffffffffffffffffffffffffffffffffffff021916908373ffffffffffffffffffffffffffffffffffffffff1602179055506003600481905550505062000274565b600033905090565b60008060009054906101000a900473ffffffffffffffffffffffffffffffffffffffff169050816000806101000a81548173ffffffffffffffffffffffffffffffffffffffff021916908373ffffffffffffffffffffffffffffffffffffffff1602179055508173ffffffffffffffffffffffffffffffffffffffff168173ffffffffffffffffffffffffffffffffffffffff167f8be0079c531659141344cd1fd0a4f28419497f9722a3daafe3b4186f6b6457e060405160405180910390a35050565b600080fd5b600073ffffffffffffffffffffffffffffffffffffffff82169050919050565b6000620001f582620001c8565b9050919050565b6200020781620001e8565b81146200021357600080fd5b50565b6000815190506200022781620001fc565b92915050565b60008060408385031215620002475762000246620001c3565b5b6000620002578582860162000216565b92505060206200026a8582860162000216565b9150509250929050565b61265d80620002846000396000f3fe608060405234801561001057600080fd5b50600436106101165760003560e01c8063b2d62421116100a2578063db068e0e11610071578063db068e0e14610319578063e6aa216c14610335578063f2fde38b14610353578063f61b4e761461036f578063fcee45f41461039f57610116565b8063b2d624211461027f578063b47e5f46146102af578063b6d6a415146102df578063d5352245146102fb57610116565b80637ba7b8d6116100e95780637ba7b8d6146101b5578063817f9bc4146101e55780638da5cb5b146102015780639eaef5b41461021f578063af7370c11461024f57610116565b80630c0cd4891461011b57806346f5ff651461014b578063715018a61461017b5780637655172414610185575b600080fd5b61013560048036038101906101309190611a5d565b6103cf565b6040516101429190611aa3565b60405180910390f35b61016560048036038101906101609190611aea565b610418565b6040516101729190611b32565b60405180910390f35b610183610458565b005b61019f600480360381019061019a9190611b72565b61046c565b6040516101ac9190611aa3565b60405180910390f35b6101cf60048036038101906101ca9190611aea565b6104f7565b6040516101dc9190611aa3565b60405180910390f35b6101ff60048036038101906101fa9190611aea565b6104fe565b005b6102096109c3565b6040516102169190611bc1565b60405180910390f35b61023960048036038101906102349190611aea565b6109ec565b6040516102469190611d76565b60405180910390f35b61026960048036038101906102649190611a5d565b610b31565b6040516102769190611e41565b60405180910390f35b61029960048036038101906102949190611aea565b610bc8565b6040516102a69190611aa3565b60405180910390f35b6102c960048036038101906102c49190611e63565b610bde565b6040516102d69190611aa3565b60405180910390f35b6102f960048036038101906102f49190611aea565b61157a565b005b6103036116ae565b6040516103109190611bc1565b60405180910390f35b610333600480360381019061032e9190611aea565b6116d8565b005b61033d6116ea565b60405161034a9190611aa3565b60405180910390f35b61036d60048036038101906103689190611a5d565b6116f4565b005b61038960048036038101906103849190611eb6565b611778565b6040516103969190611aa3565b60405180910390f35b6103b960048036038101906103b49190611aea565b611800565b6040516103c69190611aa3565b60405180910390f35b6000600960008373ffffffffffffffffffffffffffffffffffffffff1673ffffffffffffffffffffffffffffffffffffffff168152602001908152602001600020549050919050565b600080600c60008481526020019081526020016000209050600654816007015482600601546104479190611f38565b6104519190611f38565b5050919050565b610460611823565b61046a60006118a1565b565b600080600181111561048157610480611bdc565b5b82600181111561049457610493611bdc565b5b14156104af57600154836104a89190611f8e565b90506104f1565b6001808111156104c2576104c1611bdc565b5b8260018111156104d5576104d4611bdc565b5b14156104f057600154836104e99190612017565b90506104f1565b5b92915050565b6000919050565b600d600082815260200190815260200160002060009054906101000a900473ffffffffffffffffffffffffffffffffffffffff1673ffffffffffffffffffffffffffffffffffffffff163373ffffffffffffffffffffffffffffffffffffffff161461059f576040517f08c379a0000000000000000000000000000000000000000000000000000000008152600401610596906120cb565b60405180910390fd5b6000600c60008381526020019081526020016000209050600015158160090160009054906101000a900460ff1615151461060e576040517f08c379a000000000000000000000000000000000000000000000000000000000815260040161060590612137565b60405180910390fd5b600015158160090160019054906101000a900460ff16151514610666576040517f08c379a000000000000000000000000000000000000000000000000000000000815260040161065d906121a3565b60405180910390fd5b6000600181111561067a57610679611bdc565b5b8160000160009054906101000a900460ff16600181111561069e5761069d611bdc565b5b141561080057600360009054906101000a900473ffffffffffffffffffffffffffffffffffffffff1673ffffffffffffffffffffffffffffffffffffffff166323b872dd3330846008015485600301546106f89190611f8e565b6040518463ffffffff1660e01b8152600401610716939291906121c3565b6020604051808303816000875af1158015610735573d6000803e3d6000fd5b505050506040513d601f19601f820116820180604052508101906107599190612226565b50600260009054906101000a900473ffffffffffffffffffffffffffffffffffffffff1673ffffffffffffffffffffffffffffffffffffffff1663a9059cbb3383600301546040518363ffffffff1660e01b81526004016107bb929190612253565b6020604051808303816000875af11580156107da573d6000803e3d6000fd5b505050506040513d601f19601f820116820180604052508101906107fe9190612226565b505b60018081111561081357610812611bdc565b5b8160000160009054906101000a900460ff16600181111561083757610836611bdc565b5b141561099957600360009054906101000a900473ffffffffffffffffffffffffffffffffffffffff1673ffffffffffffffffffffffffffffffffffffffff166323b872dd3330846008015485600301546108919190612017565b6040518463ffffffff1660e01b81526004016108af939291906121c3565b6020604051808303816000875af11580156108ce573d6000803e3d6000fd5b505050506040513d601f19601f820116820180604052508101906108f29190612226565b50600360009054906101000a900473ffffffffffffffffffffffffffffffffffffffff1673ffffffffffffffffffffffffffffffffffffffff1663a9059cbb3383600301546040518363ffffffff1660e01b8152600401610954929190612253565b6020604051808303816000875af1158015610973573d6000803e3d6000fd5b505050506040513d601f19601f820116820180604052508101906109979190612226565b505b60018160090160006101000a81548160ff0219169083151502179055504281600a01819055505050565b60008060009054906101000a900473ffffffffffffffffffffffffffffffffffffffff16905090565b6109f461196d565b600c6000838152602001908152602001600020604051806101800160405290816000820160009054906101000a900460ff166001811115610a3857610a37611bdc565b5b6001811115610a4a57610a49611bdc565b5b8152602001600182015481526020016002820160009054906101000a900473ffffffffffffffffffffffffffffffffffffffff1673ffffffffffffffffffffffffffffffffffffffff1673ffffffffffffffffffffffffffffffffffffffff1681526020016003820154815260200160048201548152602001600582015481526020016006820154815260200160078201548152602001600882015481526020016009820160009054906101000a900460ff161515151581526020016009820160019054906101000a900460ff16151515158152602001600a820154815250509050919050565b6060600e60008373ffffffffffffffffffffffffffffffffffffffff1673ffffffffffffffffffffffffffffffffffffffff168152602001908152602001600020805480602002602001604051908101604052809291908181526020018280548015610bbc57602002820191906000526020600020905b815481526020019060010190808311610ba8575b50505050509050919050565b6000600a82610bd79190612017565b9050919050565b6000600a6000815480929190610bf39061227c565b91905055506000610c0383610bc8565b90506000610c1084611800565b90506000818386610c219190611f38565b610c2b9190611f38565b90506000610c39868961046c565b905060006001811115610c4f57610c4e611bdc565b5b886001811115610c6257610c61611bdc565b5b1415610e255781600260009054906101000a900473ffffffffffffffffffffffffffffffffffffffff1673ffffffffffffffffffffffffffffffffffffffff166370a08231336040518263ffffffff1660e01b8152600401610cc49190611bc1565b602060405180830381865afa158015610ce1573d6000803e3d6000fd5b505050506040513d601f19601f82011682018060405250810190610d0591906122da565b1015610d46576040517f08c379a0000000000000000000000000000000000000000000000000000000008152600401610d3d90612353565b60405180910390fd5b80600360009054906101000a900473ffffffffffffffffffffffffffffffffffffffff1673ffffffffffffffffffffffffffffffffffffffff166370a08231306040518263ffffffff1660e01b8152600401610da29190611bc1565b602060405180830381865afa158015610dbf573d6000803e3d6000fd5b505050506040513d601f19601f82011682018060405250810190610de391906122da565b1015610e24576040517f08c379a0000000000000000000000000000000000000000000000000000000008152600401610e1b906123e5565b60405180910390fd5b5b600180811115610e3857610e37611bdc565b5b886001811115610e4b57610e4a611bdc565b5b1415610fd85781600360009054906101000a900473ffffffffffffffffffffffffffffffffffffffff1673ffffffffffffffffffffffffffffffffffffffff166370a08231336040518263ffffffff1660e01b8152600401610ead9190611bc1565b602060405180830381865afa158015610eca573d6000803e3d6000fd5b505050506040513d601f19601f82011682018060405250810190610eee91906122da565b1015610f2f576040517f08c379a0000000000000000000000000000000000000000000000000000000008152600401610f2690612451565b60405180910390fd5b80600360009054906101000a900473ffffffffffffffffffffffffffffffffffffffff1673ffffffffffffffffffffffffffffffffffffffff166370a08231306040518263ffffffff1660e01b8152600401610f8b9190611bc1565b602060405180830381865afa158015610fa8573d6000803e3d6000fd5b505050506040513d601f19601f82011682018060405250810190610fcc91906122da565b1015610fd757600080fd5b5b60075487111561101d576040517f08c379a000000000000000000000000000000000000000000000000000000000815260040161101490612509565b60405180910390fd5b6000600181111561103157611030611bdc565b5b88600181111561104457611043611bdc565b5b141561118f57600260009054906101000a900473ffffffffffffffffffffffffffffffffffffffff1673ffffffffffffffffffffffffffffffffffffffff166323b872dd3330856040518463ffffffff1660e01b81526004016110a9939291906121c3565b6020604051808303816000875af11580156110c8573d6000803e3d6000fd5b505050506040513d601f19601f820116820180604052508101906110ec9190612226565b50600360009054906101000a900473ffffffffffffffffffffffffffffffffffffffff1673ffffffffffffffffffffffffffffffffffffffff1663a9059cbb33836040518363ffffffff1660e01b815260040161114a929190612253565b6020604051808303816000875af1158015611169573d6000803e3d6000fd5b505050506040513d601f19601f8201168201806040525081019061118d9190612226565b505b6001808111156111a2576111a1611bdc565b5b8860018111156111b5576111b4611bdc565b5b141561130057600360009054906101000a900473ffffffffffffffffffffffffffffffffffffffff1673ffffffffffffffffffffffffffffffffffffffff166323b872dd3330856040518463ffffffff1660e01b815260040161121a939291906121c3565b6020604051808303816000875af1158015611239573d6000803e3d6000fd5b505050506040513d601f19601f8201168201806040525081019061125d9190612226565b50600260009054906101000a900473ffffffffffffffffffffffffffffffffffffffff1673ffffffffffffffffffffffffffffffffffffffff1663a9059cbb33836040518363ffffffff1660e01b81526004016112bb929190612253565b6020604051808303816000875af11580156112da573d6000803e3d6000fd5b505050506040513d601f19601f820116820180604052508101906112fe9190612226565b505b60006040518061018001604052808a600181111561132157611320611bdc565b5b8152602001600a5481526020013373ffffffffffffffffffffffffffffffffffffffff16815260200188815260200186815260200185815260200142815260200189815260200160015481526020016000151581526020016000151581526020016000815250905080600c6000600a54815260200190815260200160002060008201518160000160006101000a81548160ff021916908360018111156113ca576113c9611bdc565b5b02179055506020820151816001015560408201518160020160006101000a81548173ffffffffffffffffffffffffffffffffffffffff021916908373ffffffffffffffffffffffffffffffffffffffff160217905550606082015181600301556080820151816004015560a0820151816005015560c0820151816006015560e0820151816007015561010082015181600801556101208201518160090160006101000a81548160ff0219169083151502179055506101408201518160090160016101000a81548160ff02191690831515021790555061016082015181600a015590505033600d6000600a54815260200190815260200160002060006101000a81548173ffffffffffffffffffffffffffffffffffffffff021916908373ffffffffffffffffffffffffffffffffffffffff160217905550600e60003373ffffffffffffffffffffffffffffffffffffffff1673ffffffffffffffffffffffffffffffffffffffff168152602001908152602001600020600a549080600181540180825580915050600190039060005260206000200160009091909190915055600a54955050505050509392505050565b600360009054906101000a900473ffffffffffffffffffffffffffffffffffffffff1673ffffffffffffffffffffffffffffffffffffffff166323b872dd3330846040518463ffffffff1660e01b81526004016115d9939291906121c3565b6020604051808303816000875af11580156115f8573d6000803e3d6000fd5b505050506040513d601f19601f8201168201806040525081019061161c9190612226565b5080600960003373ffffffffffffffffffffffffffffffffffffffff1673ffffffffffffffffffffffffffffffffffffffff168152602001908152602001600020546116689190611f38565b600960003373ffffffffffffffffffffffffffffffffffffffff1673ffffffffffffffffffffffffffffffffffffffff1681526020019081526020016000208190555050565b6000600360009054906101000a900473ffffffffffffffffffffffffffffffffffffffff16905090565b6116e0611823565b8060018190555050565b6000600154905090565b6116fc611823565b600073ffffffffffffffffffffffffffffffffffffffff168173ffffffffffffffffffffffffffffffffffffffff16141561176c576040517f08c379a00000000000000000000000000000000000000000000000000000000081526004016117639061259b565b60405180910390fd5b611775816118a1565b50565b600080600181111561178d5761178c611bdc565b5b8360018111156117a05761179f611bdc565b5b14156117b95781846117b29190611f8e565b90506117f9565b6001808111156117cc576117cb611bdc565b5b8360018111156117df576117de611bdc565b5b14156117f85781846117f19190612017565b90506117f9565b5b9392505050565b60006004546064836118129190612017565b61181c9190611f8e565b9050919050565b61182b611965565b73ffffffffffffffffffffffffffffffffffffffff166118496109c3565b73ffffffffffffffffffffffffffffffffffffffff161461189f576040517f08c379a000000000000000000000000000000000000000000000000000000000815260040161189690612607565b60405180910390fd5b565b60008060009054906101000a900473ffffffffffffffffffffffffffffffffffffffff169050816000806101000a81548173ffffffffffffffffffffffffffffffffffffffff021916908373ffffffffffffffffffffffffffffffffffffffff1602179055508173ffffffffffffffffffffffffffffffffffffffff168173ffffffffffffffffffffffffffffffffffffffff167f8be0079c531659141344cd1fd0a4f28419497f9722a3daafe3b4186f6b6457e060405160405180910390a35050565b600033905090565b6040518061018001604052806000600181111561198d5761198c611bdc565b5b815260200160008152602001600073ffffffffffffffffffffffffffffffffffffffff168152602001600081526020016000815260200160008152602001600081526020016000815260200160008152602001600015158152602001600015158152602001600081525090565b600080fd5b600073ffffffffffffffffffffffffffffffffffffffff82169050919050565b6000611a2a826119ff565b9050919050565b611a3a81611a1f565b8114611a4557600080fd5b50565b600081359050611a5781611a31565b92915050565b600060208284031215611a7357611a726119fa565b5b6000611a8184828501611a48565b91505092915050565b6000819050919050565b611a9d81611a8a565b82525050565b6000602082019050611ab86000830184611a94565b92915050565b611ac781611a8a565b8114611ad257600080fd5b50565b600081359050611ae481611abe565b92915050565b600060208284031215611b0057611aff6119fa565b5b6000611b0e84828501611ad5565b91505092915050565b60008115159050919050565b611b2c81611b17565b82525050565b6000602082019050611b476000830184611b23565b92915050565b60028110611b5a57600080fd5b50565b600081359050611b6c81611b4d565b92915050565b60008060408385031215611b8957611b886119fa565b5b6000611b9785828601611ad5565b9250506020611ba885828601611b5d565b9150509250929050565b611bbb81611a1f565b82525050565b6000602082019050611bd66000830184611bb2565b92915050565b7f4e487b7100000000000000000000000000000000000000000000000000000000600052602160045260246000fd5b60028110611c1c57611c1b611bdc565b5b50565b6000819050611c2d82611c0b565b919050565b6000611c3d82611c1f565b9050919050565b611c4d81611c32565b82525050565b611c5c81611a8a565b82525050565b611c6b81611a1f565b82525050565b611c7a81611b17565b82525050565b61018082016000820151611c976000850182611c44565b506020820151611caa6020850182611c53565b506040820151611cbd6040850182611c62565b506060820151611cd06060850182611c53565b506080820151611ce36080850182611c53565b5060a0820151611cf660a0850182611c53565b5060c0820151611d0960c0850182611c53565b5060e0820151611d1c60e0850182611c53565b50610100820151611d31610100850182611c53565b50610120820151611d46610120850182611c71565b50610140820151611d5b610140850182611c71565b50610160820151611d70610160850182611c53565b50505050565b600061018082019050611d8c6000830184611c80565b92915050565b600081519050919050565b600082825260208201905092915050565b6000819050602082019050919050565b6000611dca8383611c53565b60208301905092915050565b6000602082019050919050565b6000611dee82611d92565b611df88185611d9d565b9350611e0383611dae565b8060005b83811015611e34578151611e1b8882611dbe565b9750611e2683611dd6565b925050600181019050611e07565b5085935050505092915050565b60006020820190508181036000830152611e5b8184611de3565b905092915050565b600080600060608486031215611e7c57611e7b6119fa565b5b6000611e8a86828701611b5d565b9350506020611e9b86828701611ad5565b9250506040611eac86828701611ad5565b9150509250925092565b600080600060608486031215611ecf57611ece6119fa565b5b6000611edd86828701611ad5565b9350506020611eee86828701611b5d565b9250506040611eff86828701611ad5565b9150509250925092565b7f4e487b7100000000000000000000000000000000000000000000000000000000600052601160045260246000fd5b6000611f4382611a8a565b9150611f4e83611a8a565b9250827fffffffffffffffffffffffffffffffffffffffffffffffffffffffffffffffff03821115611f8357611f82611f09565b5b828201905092915050565b6000611f9982611a8a565b9150611fa483611a8a565b9250817fffffffffffffffffffffffffffffffffffffffffffffffffffffffffffffffff0483118215151615611fdd57611fdc611f09565b5b828202905092915050565b7f4e487b7100000000000000000000000000000000000000000000000000000000600052601260045260246000fd5b600061202282611a8a565b915061202d83611a8a565b92508261203d5761203c611fe8565b5b828204905092915050565b600082825260208201905092915050565b7f6f6e6c7920746865206f776e6572206d617920636c6f7365207468652068656460008201527f6765000000000000000000000000000000000000000000000000000000000000602082015250565b60006120b5602283612048565b91506120c082612059565b604082019050919050565b600060208201905081810360008301526120e4816120a8565b9050919050565b7f486564676520697320616c726561647920636c6f736564000000000000000000600082015250565b6000612121601783612048565b915061212c826120eb565b602082019050919050565b6000602082019050818103600083015261215081612114565b9050919050565b7f486564676520697320616c7265616479206c6971756964617465640000000000600082015250565b600061218d601b83612048565b915061219882612157565b602082019050919050565b600060208201905081810360008301526121bc81612180565b9050919050565b60006060820190506121d86000830186611bb2565b6121e56020830185611bb2565b6121f26040830184611a94565b949350505050565b61220381611b17565b811461220e57600080fd5b50565b600081519050612220816121fa565b92915050565b60006020828403121561223c5761223b6119fa565b5b600061224a84828501612211565b91505092915050565b60006040820190506122686000830185611bb2565b6122756020830184611a94565b9392505050565b600061228782611a8a565b91507fffffffffffffffffffffffffffffffffffffffffffffffffffffffffffffffff8214156122ba576122b9611f09565b5b600182019050919050565b6000815190506122d481611abe565b92915050565b6000602082840312156122f0576122ef6119fa565b5b60006122fe848285016122c5565b91505092915050565b7f496e73756666696369656e74205553444320746f206f70656e20686564676500600082015250565b600061233d601f83612048565b915061234882612307565b602082019050919050565b6000602082019050818103600083015261236c81612330565b9050919050565b7f496e73756666696369656e74206c697175696469747920746f206f70656e206360008201527f6f6e747261637400000000000000000000000000000000000000000000000000602082015250565b60006123cf602783612048565b91506123da82612373565b604082019050919050565b600060208201905081810360008301526123fe816123c2565b9050919050565b7f496e73756666696369656e7420434f504320746f206f70656e20686564676500600082015250565b600061243b601f83612048565b915061244682612405565b602082019050919050565b6000602082019050818103600083015261246a8161242e565b9050919050565b7f63616e6e6f742063726561746520612068656467696e6720636f6e747261637460008201527f206c6f6e676572207468616e20746865206d6178696d756d206475726174696f60208201527f6e00000000000000000000000000000000000000000000000000000000000000604082015250565b60006124f3604183612048565b91506124fe82612471565b606082019050919050565b60006020820190508181036000830152612522816124e6565b9050919050565b7f4f776e61626c653a206e6577206f776e657220697320746865207a65726f206160008201527f6464726573730000000000000000000000000000000000000000000000000000602082015250565b6000612585602683612048565b915061259082612529565b604082019050919050565b600060208201905081810360008301526125b481612578565b9050919050565b7f4f776e61626c653a2063616c6c6572206973206e6f7420746865206f776e6572600082015250565b60006125f1602083612048565b91506125fc826125bb565b602082019050919050565b60006020820190508181036000830152612620816125e4565b905091905056fea26469706673582212201f1351d347283769a0b0ee070ffb3ab7f49d0a110a15c1cdfa137553c7acf9d164736f6c634300080a0033",
  "linkReferences": {},
  "deployedLinkReferences": {}
}