{
  "_format": "hh-sol-artifact-1",
  "contractName": "HedgeManager",
  "sourceName": "contracts/HedgeManager.sol",
  "abi": [
    {
      "inputs": [
        {
          "internalType": "address",
          "name": "_usdcAddress",
          "type": "address"
        },
        {
          "internalType": "address",
          "name": "_copcAddress",
          "type": "address"
        }
      ],
      "stateMutability": "nonpayable",
      "type": "constructor"
    },
    {
      "anonymous": false,
      "inputs": [
        {
          "indexed": true,
          "internalType": "address",
          "name": "previousOwner",
          "type": "address"
        },
        {
          "indexed": true,
          "internalType": "address",
          "name": "newOwner",
          "type": "address"
        }
      ],
      "name": "OwnershipTransferred",
      "type": "event"
    },
    {
      "inputs": [
        {
          "internalType": "uint256",
          "name": "_amount",
          "type": "uint256"
        }
      ],
      "name": "addCopcLiquidity",
      "outputs": [],
      "stateMutability": "nonpayable",
      "type": "function"
    },
    {
      "inputs": [
        {
          "internalType": "uint256",
          "name": "_hedgeId",
          "type": "uint256"
        }
      ],
      "name": "closeHedge",
      "outputs": [],
      "stateMutability": "nonpayable",
      "type": "function"
    },
    {
      "inputs": [
        {
          "internalType": "enum HedgeManager.ConversionDirection",
          "name": "_direction",
          "type": "uint8"
        },
        {
          "internalType": "uint256",
          "name": "_duration",
          "type": "uint256"
        },
        {
          "internalType": "uint256",
          "name": "_amount",
          "type": "uint256"
        }
      ],
      "name": "createHedge",
      "outputs": [
        {
          "internalType": "uint256",
          "name": "",
          "type": "uint256"
        }
      ],
      "stateMutability": "nonpayable",
      "type": "function"
    },
    {
      "inputs": [
        {
          "internalType": "uint256",
          "name": "_amount",
          "type": "uint256"
        },
        {
          "internalType": "enum HedgeManager.ConversionDirection",
          "name": "_direction",
          "type": "uint8"
        }
      ],
      "name": "getAmountForCurrentExchangeRate",
      "outputs": [
        {
          "internalType": "uint256",
          "name": "",
          "type": "uint256"
        }
      ],
      "stateMutability": "view",
      "type": "function"
    },
    {
      "inputs": [
        {
          "internalType": "uint256",
          "name": "_amount",
          "type": "uint256"
        },
        {
          "internalType": "enum HedgeManager.ConversionDirection",
          "name": "_direction",
          "type": "uint8"
        },
        {
          "internalType": "uint256",
          "name": "_rate",
          "type": "uint256"
        }
      ],
      "name": "getAmountForExchangeRate",
      "outputs": [
        {
          "internalType": "uint256",
          "name": "",
          "type": "uint256"
        }
      ],
      "stateMutability": "view",
      "type": "function"
    },
    {
      "inputs": [
        {
          "internalType": "uint256",
          "name": "_amount",
          "type": "uint256"
        }
      ],
      "name": "getCollateralRequirement",
      "outputs": [
        {
          "internalType": "uint256",
          "name": "",
          "type": "uint256"
        }
      ],
      "stateMutability": "view",
      "type": "function"
    },
    {
      "inputs": [],
      "name": "getCopcAddress",
      "outputs": [
        {
          "internalType": "address",
          "name": "",
          "type": "address"
        }
      ],
      "stateMutability": "view",
      "type": "function"
    },
    {
      "inputs": [
        {
          "internalType": "address",
          "name": "_lp",
          "type": "address"
        }
      ],
      "name": "getCopcLiquidityBalance",
      "outputs": [
        {
          "internalType": "uint256",
          "name": "",
          "type": "uint256"
        }
      ],
      "stateMutability": "view",
      "type": "function"
    },
    {
      "inputs": [],
      "name": "getExchangeRate",
      "outputs": [
        {
          "internalType": "uint256",
          "name": "",
          "type": "uint256"
        }
      ],
      "stateMutability": "view",
      "type": "function"
    },
    {
      "inputs": [
        {
          "internalType": "uint256",
          "name": "_amount",
          "type": "uint256"
        }
      ],
      "name": "getFee",
      "outputs": [
        {
          "internalType": "uint256",
          "name": "",
          "type": "uint256"
        }
      ],
      "stateMutability": "view",
      "type": "function"
    },
    {
      "inputs": [
        {
          "internalType": "uint256",
          "name": "_hedgeId",
          "type": "uint256"
        }
      ],
      "name": "getHedge",
      "outputs": [
        {
          "components": [
            {
              "internalType": "enum HedgeManager.ConversionDirection",
              "name": "direction",
              "type": "uint8"
            },
            {
              "internalType": "uint256",
              "name": "id",
              "type": "uint256"
            },
            {
              "internalType": "address",
              "name": "owner",
              "type": "address"
            },
            {
              "internalType": "uint256",
              "name": "amount",
              "type": "uint256"
            },
            {
              "internalType": "uint256",
              "name": "collateral",
              "type": "uint256"
            },
            {
              "internalType": "uint256",
              "name": "fee",
              "type": "uint256"
            },
            {
              "internalType": "uint256",
              "name": "startDate",
              "type": "uint256"
            },
            {
              "internalType": "uint256",
              "name": "duration",
              "type": "uint256"
            },
            {
              "internalType": "uint256",
              "name": "lockedInRate",
              "type": "uint256"
            },
            {
              "internalType": "bool",
              "name": "closed",
              "type": "bool"
            },
            {
              "internalType": "bool",
              "name": "liquidated",
              "type": "bool"
            },
            {
              "internalType": "uint256",
              "name": "closeDate",
              "type": "uint256"
            }
          ],
          "internalType": "struct HedgeManager.Hedge",
          "name": "",
          "type": "tuple"
        }
      ],
      "stateMutability": "view",
      "type": "function"
    },
    {
      "inputs": [
        {
          "internalType": "uint256",
          "name": "_hedgeId",
          "type": "uint256"
        }
      ],
      "name": "getHedgeExpiration",
      "outputs": [
        {
          "internalType": "uint256",
          "name": "",
          "type": "uint256"
        }
      ],
      "stateMutability": "view",
      "type": "function"
    },
    {
      "inputs": [
        {
          "internalType": "address",
          "name": "_owner",
          "type": "address"
        }
      ],
      "name": "getHedges",
      "outputs": [
        {
          "internalType": "uint256[]",
          "name": "",
          "type": "uint256[]"
        }
      ],
      "stateMutability": "view",
      "type": "function"
    },
    {
      "inputs": [
        {
          "internalType": "uint256",
          "name": "_hedgeId",
          "type": "uint256"
        }
      ],
      "name": "liquidateHedge",
      "outputs": [
        {
          "internalType": "bool",
          "name": "",
          "type": "bool"
        }
      ],
      "stateMutability": "nonpayable",
      "type": "function"
    },
    {
      "inputs": [],
      "name": "owner",
      "outputs": [
        {
          "internalType": "address",
          "name": "",
          "type": "address"
        }
      ],
      "stateMutability": "view",
      "type": "function"
    },
    {
      "inputs": [],
      "name": "renounceOwnership",
      "outputs": [],
      "stateMutability": "nonpayable",
      "type": "function"
    },
    {
      "inputs": [
        {
          "internalType": "uint256",
          "name": "rate",
          "type": "uint256"
        }
      ],
      "name": "setExchangeRate",
      "outputs": [],
      "stateMutability": "nonpayable",
      "type": "function"
    },
    {
      "inputs": [
        {
          "internalType": "address",
          "name": "newOwner",
          "type": "address"
        }
      ],
      "name": "transferOwnership",
      "outputs": [],
      "stateMutability": "nonpayable",
      "type": "function"
    }
  ],
  "bytecode": "0x6080604052621fa4006006556276a7006007553480156200001f57600080fd5b5060405162002a0a38038062002a0a83398181016040528101906200004591906200022d565b6200006562000059620000f760201b60201c565b620000ff60201b60201c565b81600260006101000a81548173ffffffffffffffffffffffffffffffffffffffff021916908373ffffffffffffffffffffffffffffffffffffffff16021790555080600360006101000a81548173ffffffffffffffffffffffffffffffffffffffff021916908373ffffffffffffffffffffffffffffffffffffffff1602179055506003600481905550505062000274565b600033905090565b60008060009054906101000a900473ffffffffffffffffffffffffffffffffffffffff169050816000806101000a81548173ffffffffffffffffffffffffffffffffffffffff021916908373ffffffffffffffffffffffffffffffffffffffff1602179055508173ffffffffffffffffffffffffffffffffffffffff168173ffffffffffffffffffffffffffffffffffffffff167f8be0079c531659141344cd1fd0a4f28419497f9722a3daafe3b4186f6b6457e060405160405180910390a35050565b600080fd5b600073ffffffffffffffffffffffffffffffffffffffff82169050919050565b6000620001f582620001c8565b9050919050565b6200020781620001e8565b81146200021357600080fd5b50565b6000815190506200022781620001fc565b92915050565b60008060408385031215620002475762000246620001c3565b5b6000620002578582860162000216565b92505060206200026a8582860162000216565b9150509250929050565b61278680620002846000396000f3fe608060405234801561001057600080fd5b50600436106101165760003560e01c8063b2d62421116100a2578063db068e0e11610071578063db068e0e14610319578063e6aa216c14610335578063f2fde38b14610353578063f61b4e761461036f578063fcee45f41461039f57610116565b8063b2d624211461027f578063b47e5f46146102af578063b6d6a415146102df578063d5352245146102fb57610116565b80637ba7b8d6116100e95780637ba7b8d6146101b5578063817f9bc4146101e55780638da5cb5b146102015780639eaef5b41461021f578063af7370c11461024f57610116565b80630c0cd4891461011b57806346f5ff651461014b578063715018a61461017b5780637655172414610185575b600080fd5b61013560048036038101906101309190611af4565b6103cf565b6040516101429190611b3a565b60405180910390f35b61016560048036038101906101609190611b81565b610418565b6040516101729190611bc9565b60405180910390f35b610183610458565b005b61019f600480360381019061019a9190611c09565b61046c565b6040516101ac9190611b3a565b60405180910390f35b6101cf60048036038101906101ca9190611b81565b61058e565b6040516101dc9190611b3a565b60405180910390f35b6101ff60048036038101906101fa9190611b81565b610595565b005b610209610a5a565b6040516102169190611c58565b60405180910390f35b61023960048036038101906102349190611b81565b610a83565b6040516102469190611e0d565b60405180910390f35b61026960048036038101906102649190611af4565b610bc8565b6040516102769190611ed8565b60405180910390f35b61029960048036038101906102949190611b81565b610c5f565b6040516102a69190611b3a565b60405180910390f35b6102c960048036038101906102c49190611efa565b610c75565b6040516102d69190611b3a565b60405180910390f35b6102f960048036038101906102f49190611b81565b611611565b005b610303611745565b6040516103109190611c58565b60405180910390f35b610333600480360381019061032e9190611b81565b61176f565b005b61033d611781565b60405161034a9190611b3a565b60405180910390f35b61036d60048036038101906103689190611af4565b61178b565b005b61038960048036038101906103849190611f4d565b61180f565b6040516103969190611b3a565b60405180910390f35b6103b960048036038101906103b49190611b81565b611897565b6040516103c69190611b3a565b60405180910390f35b6000600960008373ffffffffffffffffffffffffffffffffffffffff1673ffffffffffffffffffffffffffffffffffffffff168152602001908152602001600020549050919050565b600080600c60008481526020019081526020016000209050600654816007015482600601546104479190611fcf565b6104519190611fcf565b5050919050565b6104606118ba565b61046a6000611938565b565b600080600181111561048157610480611c73565b5b82600181111561049457610493611c73565b5b14156104f457620f424083116104df576040517f08c379a00000000000000000000000000000000000000000000000000000000081526004016104d6906120a8565b60405180910390fd5b600154836104ed91906120c8565b9050610588565b60018081111561050757610506611c73565b5b82600181111561051a57610519611c73565b5b141561058757620f424060015461053191906120c8565b8311610572576040517f08c379a0000000000000000000000000000000000000000000000000000000008152600401610569906120a8565b60405180910390fd5b600154836105809190612151565b9050610588565b5b92915050565b6000919050565b600d600082815260200190815260200160002060009054906101000a900473ffffffffffffffffffffffffffffffffffffffff1673ffffffffffffffffffffffffffffffffffffffff163373ffffffffffffffffffffffffffffffffffffffff1614610636576040517f08c379a000000000000000000000000000000000000000000000000000000000815260040161062d906121f4565b60405180910390fd5b6000600c60008381526020019081526020016000209050600015158160090160009054906101000a900460ff161515146106a5576040517f08c379a000000000000000000000000000000000000000000000000000000000815260040161069c90612260565b60405180910390fd5b600015158160090160019054906101000a900460ff161515146106fd576040517f08c379a00000000000000000000000000000000000000000000000000000000081526004016106f4906122cc565b60405180910390fd5b6000600181111561071157610710611c73565b5b8160000160009054906101000a900460ff16600181111561073557610734611c73565b5b141561089757600360009054906101000a900473ffffffffffffffffffffffffffffffffffffffff1673ffffffffffffffffffffffffffffffffffffffff166323b872dd33308460080154856003015461078f91906120c8565b6040518463ffffffff1660e01b81526004016107ad939291906122ec565b6020604051808303816000875af11580156107cc573d6000803e3d6000fd5b505050506040513d601f19601f820116820180604052508101906107f0919061234f565b50600260009054906101000a900473ffffffffffffffffffffffffffffffffffffffff1673ffffffffffffffffffffffffffffffffffffffff1663a9059cbb3383600301546040518363ffffffff1660e01b815260040161085292919061237c565b6020604051808303816000875af1158015610871573d6000803e3d6000fd5b505050506040513d601f19601f82011682018060405250810190610895919061234f565b505b6001808111156108aa576108a9611c73565b5b8160000160009054906101000a900460ff1660018111156108ce576108cd611c73565b5b1415610a3057600360009054906101000a900473ffffffffffffffffffffffffffffffffffffffff1673ffffffffffffffffffffffffffffffffffffffff166323b872dd3330846008015485600301546109289190612151565b6040518463ffffffff1660e01b8152600401610946939291906122ec565b6020604051808303816000875af1158015610965573d6000803e3d6000fd5b505050506040513d601f19601f82011682018060405250810190610989919061234f565b50600360009054906101000a900473ffffffffffffffffffffffffffffffffffffffff1673ffffffffffffffffffffffffffffffffffffffff1663a9059cbb3383600301546040518363ffffffff1660e01b81526004016109eb92919061237c565b6020604051808303816000875af1158015610a0a573d6000803e3d6000fd5b505050506040513d601f19601f82011682018060405250810190610a2e919061234f565b505b60018160090160006101000a81548160ff0219169083151502179055504281600a01819055505050565b60008060009054906101000a900473ffffffffffffffffffffffffffffffffffffffff16905090565b610a8b611a04565b600c6000838152602001908152602001600020604051806101800160405290816000820160009054906101000a900460ff166001811115610acf57610ace611c73565b5b6001811115610ae157610ae0611c73565b5b8152602001600182015481526020016002820160009054906101000a900473ffffffffffffffffffffffffffffffffffffffff1673ffffffffffffffffffffffffffffffffffffffff1673ffffffffffffffffffffffffffffffffffffffff1681526020016003820154815260200160048201548152602001600582015481526020016006820154815260200160078201548152602001600882015481526020016009820160009054906101000a900460ff161515151581526020016009820160019054906101000a900460ff16151515158152602001600a820154815250509050919050565b6060600e60008373ffffffffffffffffffffffffffffffffffffffff1673ffffffffffffffffffffffffffffffffffffffff168152602001908152602001600020805480602002602001604051908101604052809291908181526020018280548015610c5357602002820191906000526020600020905b815481526020019060010190808311610c3f575b50505050509050919050565b6000600a82610c6e9190612151565b9050919050565b6000600a6000815480929190610c8a906123a5565b91905055506000610c9a83610c5f565b90506000610ca784611897565b90506000818386610cb89190611fcf565b610cc29190611fcf565b90506000610cd0868961046c565b905060006001811115610ce657610ce5611c73565b5b886001811115610cf957610cf8611c73565b5b1415610ebc5781600260009054906101000a900473ffffffffffffffffffffffffffffffffffffffff1673ffffffffffffffffffffffffffffffffffffffff166370a08231336040518263ffffffff1660e01b8152600401610d5b9190611c58565b602060405180830381865afa158015610d78573d6000803e3d6000fd5b505050506040513d601f19601f82011682018060405250810190610d9c9190612403565b1015610ddd576040517f08c379a0000000000000000000000000000000000000000000000000000000008152600401610dd49061247c565b60405180910390fd5b80600360009054906101000a900473ffffffffffffffffffffffffffffffffffffffff1673ffffffffffffffffffffffffffffffffffffffff166370a08231306040518263ffffffff1660e01b8152600401610e399190611c58565b602060405180830381865afa158015610e56573d6000803e3d6000fd5b505050506040513d601f19601f82011682018060405250810190610e7a9190612403565b1015610ebb576040517f08c379a0000000000000000000000000000000000000000000000000000000008152600401610eb29061250e565b60405180910390fd5b5b600180811115610ecf57610ece611c73565b5b886001811115610ee257610ee1611c73565b5b141561106f5781600360009054906101000a900473ffffffffffffffffffffffffffffffffffffffff1673ffffffffffffffffffffffffffffffffffffffff166370a08231336040518263ffffffff1660e01b8152600401610f449190611c58565b602060405180830381865afa158015610f61573d6000803e3d6000fd5b505050506040513d601f19601f82011682018060405250810190610f859190612403565b1015610fc6576040517f08c379a0000000000000000000000000000000000000000000000000000000008152600401610fbd9061257a565b60405180910390fd5b80600360009054906101000a900473ffffffffffffffffffffffffffffffffffffffff1673ffffffffffffffffffffffffffffffffffffffff166370a08231306040518263ffffffff1660e01b81526004016110229190611c58565b602060405180830381865afa15801561103f573d6000803e3d6000fd5b505050506040513d601f19601f820116820180604052508101906110639190612403565b101561106e57600080fd5b5b6007548711156110b4576040517f08c379a00000000000000000000000000000000000000000000000000000000081526004016110ab90612632565b60405180910390fd5b600060018111156110c8576110c7611c73565b5b8860018111156110db576110da611c73565b5b141561122657600260009054906101000a900473ffffffffffffffffffffffffffffffffffffffff1673ffffffffffffffffffffffffffffffffffffffff166323b872dd3330856040518463ffffffff1660e01b8152600401611140939291906122ec565b6020604051808303816000875af115801561115f573d6000803e3d6000fd5b505050506040513d601f19601f82011682018060405250810190611183919061234f565b50600360009054906101000a900473ffffffffffffffffffffffffffffffffffffffff1673ffffffffffffffffffffffffffffffffffffffff1663a9059cbb33836040518363ffffffff1660e01b81526004016111e192919061237c565b6020604051808303816000875af1158015611200573d6000803e3d6000fd5b505050506040513d601f19601f82011682018060405250810190611224919061234f565b505b60018081111561123957611238611c73565b5b88600181111561124c5761124b611c73565b5b141561139757600360009054906101000a900473ffffffffffffffffffffffffffffffffffffffff1673ffffffffffffffffffffffffffffffffffffffff166323b872dd3330856040518463ffffffff1660e01b81526004016112b1939291906122ec565b6020604051808303816000875af11580156112d0573d6000803e3d6000fd5b505050506040513d601f19601f820116820180604052508101906112f4919061234f565b50600260009054906101000a900473ffffffffffffffffffffffffffffffffffffffff1673ffffffffffffffffffffffffffffffffffffffff1663a9059cbb33836040518363ffffffff1660e01b815260040161135292919061237c565b6020604051808303816000875af1158015611371573d6000803e3d6000fd5b505050506040513d601f19601f82011682018060405250810190611395919061234f565b505b60006040518061018001604052808a60018111156113b8576113b7611c73565b5b8152602001600a5481526020013373ffffffffffffffffffffffffffffffffffffffff16815260200188815260200186815260200185815260200142815260200189815260200160015481526020016000151581526020016000151581526020016000815250905080600c6000600a54815260200190815260200160002060008201518160000160006101000a81548160ff0219169083600181111561146157611460611c73565b5b02179055506020820151816001015560408201518160020160006101000a81548173ffffffffffffffffffffffffffffffffffffffff021916908373ffffffffffffffffffffffffffffffffffffffff160217905550606082015181600301556080820151816004015560a0820151816005015560c0820151816006015560e0820151816007015561010082015181600801556101208201518160090160006101000a81548160ff0219169083151502179055506101408201518160090160016101000a81548160ff02191690831515021790555061016082015181600a015590505033600d6000600a54815260200190815260200160002060006101000a81548173ffffffffffffffffffffffffffffffffffffffff021916908373ffffffffffffffffffffffffffffffffffffffff160217905550600e60003373ffffffffffffffffffffffffffffffffffffffff1673ffffffffffffffffffffffffffffffffffffffff168152602001908152602001600020600a549080600181540180825580915050600190039060005260206000200160009091909190915055600a54955050505050509392505050565b600360009054906101000a900473ffffffffffffffffffffffffffffffffffffffff1673ffffffffffffffffffffffffffffffffffffffff166323b872dd3330846040518463ffffffff1660e01b8152600401611670939291906122ec565b6020604051808303816000875af115801561168f573d6000803e3d6000fd5b505050506040513d601f19601f820116820180604052508101906116b3919061234f565b5080600960003373ffffffffffffffffffffffffffffffffffffffff1673ffffffffffffffffffffffffffffffffffffffff168152602001908152602001600020546116ff9190611fcf565b600960003373ffffffffffffffffffffffffffffffffffffffff1673ffffffffffffffffffffffffffffffffffffffff1681526020019081526020016000208190555050565b6000600360009054906101000a900473ffffffffffffffffffffffffffffffffffffffff16905090565b6117776118ba565b8060018190555050565b6000600154905090565b6117936118ba565b600073ffffffffffffffffffffffffffffffffffffffff168173ffffffffffffffffffffffffffffffffffffffff161415611803576040517f08c379a00000000000000000000000000000000000000000000000000000000081526004016117fa906126c4565b60405180910390fd5b61180c81611938565b50565b600080600181111561182457611823611c73565b5b83600181111561183757611836611c73565b5b141561185057818461184991906120c8565b9050611890565b60018081111561186357611862611c73565b5b83600181111561187657611875611c73565b5b141561188f5781846118889190612151565b9050611890565b5b9392505050565b60006004546064836118a99190612151565b6118b391906120c8565b9050919050565b6118c26119fc565b73ffffffffffffffffffffffffffffffffffffffff166118e0610a5a565b73ffffffffffffffffffffffffffffffffffffffff1614611936576040517f08c379a000000000000000000000000000000000000000000000000000000000815260040161192d90612730565b60405180910390fd5b565b60008060009054906101000a900473ffffffffffffffffffffffffffffffffffffffff169050816000806101000a81548173ffffffffffffffffffffffffffffffffffffffff021916908373ffffffffffffffffffffffffffffffffffffffff1602179055508173ffffffffffffffffffffffffffffffffffffffff168173ffffffffffffffffffffffffffffffffffffffff167f8be0079c531659141344cd1fd0a4f28419497f9722a3daafe3b4186f6b6457e060405160405180910390a35050565b600033905090565b60405180610180016040528060006001811115611a2457611a23611c73565b5b815260200160008152602001600073ffffffffffffffffffffffffffffffffffffffff168152602001600081526020016000815260200160008152602001600081526020016000815260200160008152602001600015158152602001600015158152602001600081525090565b600080fd5b600073ffffffffffffffffffffffffffffffffffffffff82169050919050565b6000611ac182611a96565b9050919050565b611ad181611ab6565b8114611adc57600080fd5b50565b600081359050611aee81611ac8565b92915050565b600060208284031215611b0a57611b09611a91565b5b6000611b1884828501611adf565b91505092915050565b6000819050919050565b611b3481611b21565b82525050565b6000602082019050611b4f6000830184611b2b565b92915050565b611b5e81611b21565b8114611b6957600080fd5b50565b600081359050611b7b81611b55565b92915050565b600060208284031215611b9757611b96611a91565b5b6000611ba584828501611b6c565b91505092915050565b60008115159050919050565b611bc381611bae565b82525050565b6000602082019050611bde6000830184611bba565b92915050565b60028110611bf157600080fd5b50565b600081359050611c0381611be4565b92915050565b60008060408385031215611c2057611c1f611a91565b5b6000611c2e85828601611b6c565b9250506020611c3f85828601611bf4565b9150509250929050565b611c5281611ab6565b82525050565b6000602082019050611c6d6000830184611c49565b92915050565b7f4e487b7100000000000000000000000000000000000000000000000000000000600052602160045260246000fd5b60028110611cb357611cb2611c73565b5b50565b6000819050611cc482611ca2565b919050565b6000611cd482611cb6565b9050919050565b611ce481611cc9565b82525050565b611cf381611b21565b82525050565b611d0281611ab6565b82525050565b611d1181611bae565b82525050565b61018082016000820151611d2e6000850182611cdb565b506020820151611d416020850182611cea565b506040820151611d546040850182611cf9565b506060820151611d676060850182611cea565b506080820151611d7a6080850182611cea565b5060a0820151611d8d60a0850182611cea565b5060c0820151611da060c0850182611cea565b5060e0820151611db360e0850182611cea565b50610100820151611dc8610100850182611cea565b50610120820151611ddd610120850182611d08565b50610140820151611df2610140850182611d08565b50610160820151611e07610160850182611cea565b50505050565b600061018082019050611e236000830184611d17565b92915050565b600081519050919050565b600082825260208201905092915050565b6000819050602082019050919050565b6000611e618383611cea565b60208301905092915050565b6000602082019050919050565b6000611e8582611e29565b611e8f8185611e34565b9350611e9a83611e45565b8060005b83811015611ecb578151611eb28882611e55565b9750611ebd83611e6d565b925050600181019050611e9e565b5085935050505092915050565b60006020820190508181036000830152611ef28184611e7a565b905092915050565b600080600060608486031215611f1357611f12611a91565b5b6000611f2186828701611bf4565b9350506020611f3286828701611b6c565b9250506040611f4386828701611b6c565b9150509250925092565b600080600060608486031215611f6657611f65611a91565b5b6000611f7486828701611b6c565b9350506020611f8586828701611bf4565b9250506040611f9686828701611b6c565b9150509250925092565b7f4e487b7100000000000000000000000000000000000000000000000000000000600052601160045260246000fd5b6000611fda82611b21565b9150611fe583611b21565b9250827fffffffffffffffffffffffffffffffffffffffffffffffffffffffffffffffff0382111561201a57612019611fa0565b5b828201905092915050565b600082825260208201905092915050565b7f43616e6e6f742063616c63756c61746520657868616e6765207261746520636f60008201527f6e76657273696f6e20666f72206c657373207468616e2024312e000000000000602082015250565b6000612092603a83612025565b915061209d82612036565b604082019050919050565b600060208201905081810360008301526120c181612085565b9050919050565b60006120d382611b21565b91506120de83611b21565b9250817fffffffffffffffffffffffffffffffffffffffffffffffffffffffffffffffff048311821515161561211757612116611fa0565b5b828202905092915050565b7f4e487b7100000000000000000000000000000000000000000000000000000000600052601260045260246000fd5b600061215c82611b21565b915061216783611b21565b92508261217757612176612122565b5b828204905092915050565b7f6f6e6c7920746865206f776e6572206d617920636c6f7365207468652068656460008201527f6765000000000000000000000000000000000000000000000000000000000000602082015250565b60006121de602283612025565b91506121e982612182565b604082019050919050565b6000602082019050818103600083015261220d816121d1565b9050919050565b7f486564676520697320616c726561647920636c6f736564000000000000000000600082015250565b600061224a601783612025565b915061225582612214565b602082019050919050565b600060208201905081810360008301526122798161223d565b9050919050565b7f486564676520697320616c7265616479206c6971756964617465640000000000600082015250565b60006122b6601b83612025565b91506122c182612280565b602082019050919050565b600060208201905081810360008301526122e5816122a9565b9050919050565b60006060820190506123016000830186611c49565b61230e6020830185611c49565b61231b6040830184611b2b565b949350505050565b61232c81611bae565b811461233757600080fd5b50565b60008151905061234981612323565b92915050565b60006020828403121561236557612364611a91565b5b60006123738482850161233a565b91505092915050565b60006040820190506123916000830185611c49565b61239e6020830184611b2b565b9392505050565b60006123b082611b21565b91507fffffffffffffffffffffffffffffffffffffffffffffffffffffffffffffffff8214156123e3576123e2611fa0565b5b600182019050919050565b6000815190506123fd81611b55565b92915050565b60006020828403121561241957612418611a91565b5b6000612427848285016123ee565b91505092915050565b7f496e73756666696369656e74205553444320746f206f70656e20686564676500600082015250565b6000612466601f83612025565b915061247182612430565b602082019050919050565b6000602082019050818103600083015261249581612459565b9050919050565b7f496e73756666696369656e7420434f5043206c697175696469747920746f206f60008201527f70656e20636f6e74726163740000000000000000000000000000000000000000602082015250565b60006124f8602c83612025565b91506125038261249c565b604082019050919050565b60006020820190508181036000830152612527816124eb565b9050919050565b7f496e73756666696369656e7420434f504320746f206f70656e20686564676500600082015250565b6000612564601f83612025565b915061256f8261252e565b602082019050919050565b6000602082019050818103600083015261259381612557565b9050919050565b7f63616e6e6f742063726561746520612068656467696e6720636f6e747261637460008201527f206c6f6e676572207468616e20746865206d6178696d756d206475726174696f60208201527f6e00000000000000000000000000000000000000000000000000000000000000604082015250565b600061261c604183612025565b91506126278261259a565b606082019050919050565b6000602082019050818103600083015261264b8161260f565b9050919050565b7f4f776e61626c653a206e6577206f776e657220697320746865207a65726f206160008201527f6464726573730000000000000000000000000000000000000000000000000000602082015250565b60006126ae602683612025565b91506126b982612652565b604082019050919050565b600060208201905081810360008301526126dd816126a1565b9050919050565b7f4f776e61626c653a2063616c6c6572206973206e6f7420746865206f776e6572600082015250565b600061271a602083612025565b9150612725826126e4565b602082019050919050565b600060208201905081810360008301526127498161270d565b905091905056fea26469706673582212202a5245c364b5127a1be7afd868531b67b47386be338143104451eae82d50915a64736f6c634300080a0033",
  "linkReferences": {},
  "deployedLinkReferences": {}
}